{"abi":[{"type":"function","name":"createProxy","inputs":[{"name":"implementation","type":"address","internalType":"address"},{"name":"dapplinkAddress","type":"address","internalType":"address"}],"outputs":[{"name":"","type":"address","internalType":"address"}],"stateMutability":"nonpayable"},{"type":"event","name":"ProxyCreated","inputs":[{"name":"mintProxyAddress","type":"address","indexed":false,"internalType":"address"}],"anonymous":false},{"type":"error","name":"FailedDeployment","inputs":[]},{"type":"error","name":"InsufficientBalance","inputs":[{"name":"balance","type":"uint256","internalType":"uint256"},{"name":"needed","type":"uint256","internalType":"uint256"}]}],"bytecode":{"object":"0x60808060405234601557610189908161001a8239f35b5f80fdfe60806040908082526004361015610014575f80fd5b5f3560e01c6325b5672714610027575f80fd5b34610140578160031936011261014057600435916001600160a01b03808416840361014057602435938185168095036101405780763d602d80600a3d3981f3363d3d373d3d3d363d7300000062ffffff6e5af43d82803e903d91602b57fd5bf39360881c16175f5260781b17602052603760095ff0169182156101445750813b156101405780519263485cc95560e01b845233600485015260248401525f8360448183865af1801561013657610109575b602092507efffc2da0b561cae30d9826d37709e9421c4725faebc226cbbb7ef5fc5e7349838251848152a151908152f35b67ffffffffffffffff83116101225760209281526100d8565b634e487b7160e01b5f52604160045260245ffd5b50513d5f823e3d90fd5b5f80fd5b63b06ebf3d60e01b8152600490fdfea26469706673582212202b56c8d6cd940fbb415d0206c1b83616d826ef07b46438a69181978eb0ab31fd64736f6c63430008190033","linkReferences":{}},"methodIdentifiers":{"createProxy(address,address)":"25b56727"},"storageLayout":{"storage":[],"types":{}},"id":29}