{"abi":[{"type":"constructor","inputs":[],"stateMutability":"nonpayable"},{"type":"function","name":"dappLinkAddress","inputs":[],"outputs":[{"name":"","type":"address","internalType":"address"}],"stateMutability":"view"},{"type":"function","name":"fulfillRandomWords","inputs":[{"name":"_requestId","type":"uint256","internalType":"uint256"},{"name":"_randomWords","type":"uint256[]","internalType":"uint256[]"}],"outputs":[],"stateMutability":"nonpayable"},{"type":"function","name":"getRequestStatus","inputs":[{"name":"_requestId","type":"uint256","internalType":"uint256"}],"outputs":[{"name":"fulfilled","type":"bool","internalType":"bool"},{"name":"randomWords","type":"uint256[]","internalType":"uint256[]"}],"stateMutability":"view"},{"type":"function","name":"initialize","inputs":[{"name":"initialOwner","type":"address","internalType":"address"},{"name":"_dappLinkAddress","type":"address","internalType":"address"}],"outputs":[],"stateMutability":"nonpayable"},{"type":"function","name":"lastRequestId","inputs":[],"outputs":[{"name":"","type":"uint256","internalType":"uint256"}],"stateMutability":"view"},{"type":"function","name":"owner","inputs":[],"outputs":[{"name":"","type":"address","internalType":"address"}],"stateMutability":"view"},{"type":"function","name":"renounceOwnership","inputs":[],"outputs":[],"stateMutability":"nonpayable"},{"type":"function","name":"requestIds","inputs":[{"name":"","type":"uint256","internalType":"uint256"}],"outputs":[{"name":"","type":"uint256","internalType":"uint256"}],"stateMutability":"view"},{"type":"function","name":"requestMapping","inputs":[{"name":"","type":"uint256","internalType":"uint256"}],"outputs":[{"name":"fulfilled","type":"bool","internalType":"bool"}],"stateMutability":"view"},{"type":"function","name":"requestRandomWords","inputs":[{"name":"_requestId","type":"uint256","internalType":"uint256"},{"name":"_numWords","type":"uint256","internalType":"uint256"}],"outputs":[],"stateMutability":"nonpayable"},{"type":"function","name":"setDappLink","inputs":[{"name":"_dappLinkAddress","type":"address","internalType":"address"}],"outputs":[],"stateMutability":"nonpayable"},{"type":"function","name":"transferOwnership","inputs":[{"name":"newOwner","type":"address","internalType":"address"}],"outputs":[],"stateMutability":"nonpayable"},{"type":"event","name":"FillRandomWords","inputs":[{"name":"requestId","type":"uint256","indexed":false,"internalType":"uint256"},{"name":"randomWords","type":"uint256[]","indexed":false,"internalType":"uint256[]"}],"anonymous":false},{"type":"event","name":"Initialized","inputs":[{"name":"version","type":"uint64","indexed":false,"internalType":"uint64"}],"anonymous":false},{"type":"event","name":"OwnershipTransferred","inputs":[{"name":"previousOwner","type":"address","indexed":true,"internalType":"address"},{"name":"newOwner","type":"address","indexed":true,"internalType":"address"}],"anonymous":false},{"type":"event","name":"RequestSent","inputs":[{"name":"requestId","type":"uint256","indexed":false,"internalType":"uint256"},{"name":"_numWords","type":"uint256","indexed":false,"internalType":"uint256"},{"name":"current","type":"address","indexed":false,"internalType":"address"}],"anonymous":false},{"type":"error","name":"InvalidInitialization","inputs":[]},{"type":"error","name":"NotInitializing","inputs":[]},{"type":"error","name":"OwnableInvalidOwner","inputs":[{"name":"owner","type":"address","internalType":"address"}]},{"type":"error","name":"OwnableUnauthorizedAccount","inputs":[{"name":"account","type":"address","internalType":"address"}]}],"bytecode":{"object":"0x6080806040523460b4577ff0c57e16840df040f15088dc2f81fe391c3923bec73e23a9662efc9c229c6a009081549060ff8260401c1660a557506001600160401b036002600160401b0319828216016061575b6040516109e290816100b98239f35b6001600160401b031990911681179091556040519081527fc7f505b2f371ae2175ee4913f4499e1f2633a7b5936321eed1cdaeb6115181d290602090a15f80806052565b63f92ee8a960e01b8152600490fd5b5f80fdfe604060808152600480361015610013575f80fd5b5f3560e01c9081631b739ef11461061f57816338ba461414610432578163485cc955146102da578163715018a61461027357816382e215ab146102475781638796ba8c146102105781638da5cb5b146101dc578163996869d014610199578163d8a4676f1461011557508063f0c28a41146100ed578063f2fde38b146100c25763fc2a88c3146100a1575f80fd5b346100be575f3660031901126100be576020906001549051908152f35b5f80fd5b346100be5760203660031901126100be576100eb6100de610812565b6100e6610913565b6108a2565b005b50346100be575f3660031901126100be5760025490516001600160a01b039091168152602090f35b82346100be57602091826003193601126100be57355f5260038252805f2060ff815416916001809201815180938683549283815201925f52865f20915f5b888282106101865788610182898961016d828b03836107f0565b8080519586951515865285015283019061086f565b0390f35b8454865290940193928201928201610153565b346100be5760203660031901126100be576101b2610812565b6101ba610913565b600280546001600160a01b0319166001600160a01b0392909216919091179055005b82346100be575f3660031901126100be575f8051602061098d8339815191525490516001600160a01b039091168152602090f35b9050346100be5760203660031901126100be5735905f548210156100be57610239602092610828565b91905490519160031b1c8152f35b82346100be5760203660031901126100be57602091355f526003825260ff815f20541690519015158152f35b346100be575f3660031901126100be5761028b610913565b5f8051602061098d83398151915280546001600160a01b031981169091555f906001600160a01b03167f8be0079c531659141344cd1fd0a4f28419497f9722a3daafe3b4186f6b6457e08280a3005b9050346100be57816003193601126100be576102f4610812565b906024356001600160a01b038116908190036100be577ff0c57e16840df040f15088dc2f81fe391c3923bec73e23a9662efc9c229c6a0092835460ff81871c16159367ffffffffffffffff82168015908161042a575b6001149081610420575b159081610417575b50610409575067ffffffffffffffff198116600117855561038f9190846103ea575b5061038761094b565b6100e661094b565b6bffffffffffffffffffffffff60a01b60025416176002556103ad57005b805468ff00000000000000001916905551600181527fc7f505b2f371ae2175ee4913f4499e1f2633a7b5936321eed1cdaeb6115181d290602090a1005b68ffffffffffffffffff1916680100000000000000011785555f61037e565b865163f92ee8a960e01b8152fd5b9050155f61035c565b303b159150610354565b86915061034a565b82346100be57806003193601126100be57813560249182359267ffffffffffffffff8085116100be57366023860112156100be57848601359581871161060d578660051b956020968551986104898983018b6107f0565b895284888a0191830101913683116100be5785899101915b8383106105fd5750506002546001600160a01b0316330391506105bb9050578351906104cc826107c0565b600193600183526001888401938a8552885f5260038a52875f209051151560ff801983541691161781550192519182519485116105aa57600160401b85116105aa57505086908254848455808510610580575b5001905f52855f205f5b83811061056f5785518781528089018790527ff3cb4deb0441dd096356debf166f879d78cadc19e4b94053c8bea6d3940de93a908061056a818a018d61086f565b0390a1005b825182820155918701918401610529565b835f528585845f2092830192015b82811061059c57505061051f565b5f81558a945087910161058e565b604190634e487b7160e01b5f52525ffd5b835162461bcd60e51b81529081018690526018818401527f446170704c696e6b5652462e6f6e6c79446170704c696e6b00000000000000006044820152606490fd5b82358152918101918991016104a1565b60419150634e487b7160e01b5f52525ffd5b82346100be57806003193601126100be5781359161063b610913565b815160209167ffffffffffffffff838301818111848210176107ad5785525f8352845190610668826107c0565b5f8252848201938452865f5260038552855f209151151560ff801984541691161782556001809201935193845191821161079a57600160401b94858311610787578690825484845580851061075d575b5001905f52855f205f5b83811061074c5750505050505f5491821015610739577fe697eb68c0228bd7d4e553246a2a86e8402d0895e45092ef8ae87b4cfd29f016606086868661070d87600181015f55610828565b81549060031b9085821b915f19901b1916179055826001558151928352602435908301523090820152a1005b604190634e487b7160e01b5f525260245ffd5b8251828201559187019184016106c2565b835f528585845f2092830192015b8281106107795750506106b8565b5f81558a945087910161076b565b604185634e487b7160e01b5f525260245ffd5b604184634e487b7160e01b5f525260245ffd5b604183634e487b7160e01b5f525260245ffd5b6040810190811067ffffffffffffffff8211176107dc57604052565b634e487b7160e01b5f52604160045260245ffd5b90601f8019910116810190811067ffffffffffffffff8211176107dc57604052565b600435906001600160a01b03821682036100be57565b5f5481101561085b575f80527f290decd9548b62a8d60345a988386fc84ba6bc95484008f6362f93160ef3e56301905f90565b634e487b7160e01b5f52603260045260245ffd5b9081518082526020808093019301915f5b82811061088e575050505090565b835185529381019392810192600101610880565b6001600160a01b039081169081156108fb575f8051602061098d83398151915280546001600160a01b031981168417909155167f8be0079c531659141344cd1fd0a4f28419497f9722a3daafe3b4186f6b6457e05f80a3565b604051631e4fbdf760e01b81525f6004820152602490fd5b5f8051602061098d833981519152546001600160a01b0316330361093357565b60405163118cdaa760e01b8152336004820152602490fd5b60ff7ff0c57e16840df040f15088dc2f81fe391c3923bec73e23a9662efc9c229c6a005460401c161561097a57565b604051631afcd79f60e31b8152600490fdfe9016d09d72d40fdae2fd8ceac6b6234c7706214fd39c1cd1e609a0528c199300a264697066735822122037f6f92d375a7ec9ca1280ab2fc9cfa91e151086855f4816940270a2c7a352ae64736f6c63430008190033","linkReferences":{}},"methodIdentifiers":{"dappLinkAddress()":"f0c28a41","fulfillRandomWords(uint256,uint256[])":"38ba4614","getRequestStatus(uint256)":"d8a4676f","initialize(address,address)":"485cc955","lastRequestId()":"fc2a88c3","owner()":"8da5cb5b","renounceOwnership()":"715018a6","requestIds(uint256)":"8796ba8c","requestMapping(uint256)":"82e215ab","requestRandomWords(uint256,uint256)":"1b739ef1","setDappLink(address)":"996869d0","transferOwnership(address)":"f2fde38b"},"storageLayout":{"storage":[{"astId":40795,"contract":"src/DappLinkVRF.sol:DappLinkVRF","label":"requestIds","offset":0,"slot":"0","type":"t_array(t_uint256)dyn_storage"},{"astId":40797,"contract":"src/DappLinkVRF.sol:DappLinkVRF","label":"lastRequestId","offset":0,"slot":"1","type":"t_uint256"},{"astId":40799,"contract":"src/DappLinkVRF.sol:DappLinkVRF","label":"dappLinkAddress","offset":0,"slot":"2","type":"t_address"},{"astId":40804,"contract":"src/DappLinkVRF.sol:DappLinkVRF","label":"requestMapping","offset":0,"slot":"3","type":"t_mapping(t_uint256,t_struct(RequestStatus)40792_storage)"}],"types":{"t_address":{"encoding":"inplace","label":"address","numberOfBytes":"20"},"t_array(t_uint256)dyn_storage":{"encoding":"dynamic_array","label":"uint256[]","numberOfBytes":"32","base":"t_uint256"},"t_bool":{"encoding":"inplace","label":"bool","numberOfBytes":"1"},"t_mapping(t_uint256,t_struct(RequestStatus)40792_storage)":{"encoding":"mapping","key":"t_uint256","label":"mapping(uint256 => struct DappLinkVRF.RequestStatus)","numberOfBytes":"32","value":"t_struct(RequestStatus)40792_storage"},"t_struct(RequestStatus)40792_storage":{"encoding":"inplace","label":"struct DappLinkVRF.RequestStatus","numberOfBytes":"64","members":[{"astId":40788,"contract":"src/DappLinkVRF.sol:DappLinkVRF","label":"fulfilled","offset":0,"slot":"0","type":"t_bool"},{"astId":40791,"contract":"src/DappLinkVRF.sol:DappLinkVRF","label":"randomWords","offset":0,"slot":"1","type":"t_array(t_uint256)dyn_storage"}]},"t_uint256":{"encoding":"inplace","label":"uint256","numberOfBytes":"32"}}},"id":28}